:020000040000fa
:080000000001040000000000f3
:020000040000fa
:100008009401000094010000940100009401000094
:100018009401000094010000940100009401000084
:100028009401000094010000940100009401000074
:100038009401000094010000940100009401000064
:1000480094010000b2010000940100009401000036
:100058009401000094010000940100009401000044
:100068009401000094010000940100009401000034
:100078009401000094010000940100009401000024
:100088009401000094010000940100009401000014
:100098009401000094010000940100009401000004
:1000a80094010000940100009401000094010000f4
:1000b80094010000940100009401000094010000e4
:1000c80094010000940100009401000094010000d4
:1000d80094010000940100009401000094010000c4
:1000e80094010000940100009401000094010000b4
:0800f8009401000094010000d6
:020000040000fa
:100108009401000094010000940100009401000093
:100118009401000094010000940100009401000083
:100128009401000094010000940100009401000073
:100138009401000094010000940100009401000063
:1001480094010000b2010000940100009401000035
:100158009401000094010000940100009401000043
:100168009401000094010000940100009401000033
:100178009401000094010000940100009401000023
:100188009401000094010000940100009401000013
:100198009401000094010000940100009401000003
:1001a80094010000940100009401000094010000f3
:1001b80094010000940100009401000094010000e3
:1001c80094010000940100009401000094010000d3
:1001d80094010000940100009401000094010000c3
:1001e80094010000940100009401000094010000b3
:0801f8009401000094010000d5
:020000040000fa
:100200006f8020000eff20000e018800000000001b
:1002100000012000200288000c000700405320004d
:100220000100200011000700000020000000e00095
:10023000020032000000020000000000fa0102008b
:10024000000000000040da000000fe004440a90069
:10025000000020000000e000030032000000200049
:10026000a00188004440a800000006009101880019
:10027000800078000000eb0015003700e2804000ad
:1002800032a0b4009101ba00e280400032a0b40074
:100290009102ba00e280400032a0b4000002eb00fc
:1002a000472bde00f507b200602ce10004003a00a5
:1002b0000059eb008301e900fdff3e000400370018
:1002c0006128e100010032000082eb000400070019
:1002d0001101ba000200e000e8ff3a000000060049
:1002e0003159ba008301e9000c0032002159ba00eb
:1002f0008301e900080032000400e00003003a0036
:10030000e280400032a0b400f5ff370011d9ba00f6
:100310008301e900faff3a008100e800e180400033
:1003200032a0b400000006000040da000000fe0029
:020000040000fa
:100330000000fa000d42a90074202000a4108800db
:1003400075108000c4ff2f000482620074108800c2
:100350000de2a8000f42a8008d20a8000080fa003e
:1003600000000600801f7800841f78003400f80029
:1003700000002000a00188000000fa008520a900ec
:1003800094108000044278000440780000e8b70030
:100390000080fa003400f9004f0278004f00780026
:1003a000004006000200fa00000f78000000000084
:1003b000751080000410200004826200e00f5200db
:1003c000fbff32006410800066026200e60f5200fc
:1003d00003003a001e0278008410880003003700f2
:1003e000f40f20001e026200841088000080fa00d2
:1003f000000006000000fa00cdff0700a802a800d8
:10040000a822a800a842a800a862a800a882a80064
:10041000a942a800a962a800a982a800c742a90011
:10042000c762a900c782a900cda2a900cdc2a900b8
:10043000c602a800c622a800c642a800c662a8003c
:10044000c682a800010037000000000044168000aa
:1004500061026200e00f5200120032004416800078
:1004600062026200e00f52000e003200441680006b
:1004700064026200e00f52000a003200441680005d
:1004800068026200e00f520006003200441680004d
:1004900070026200e00f5200020032000002eb0026
:1004a000144088004416800061026200e00f520090
:1004b00004003a00cb42a800140020001440880039
:1004c00001003700cb42a90044168000620262009e
:1004d000e00f520004003a00cb62a8002400200084
:1004e0001440880001003700cb62a9004416800048
:1004f00064026200e00f520004003a00cb82a800c0
:10050000340020001440880001003700cb82a9008d
:100510004416800068026200e00f520004003a00b6
:10052000d1a2a80044002000144088000100370038
:10053000d1a2a9004416800070026200e00f5200b0
:1005400004003a00d1c2a8005400200014408800e2
:1005500001003700d1c2a90014408000e00f520012
:1005600029003a00000320008eff0700000320004e
:100570008cff0700000320008aff07000003200013
:1005800088ff07000003200086ff07000002eb0041
:100590002440880003003700244080000402e80063
:1005a0002440880025408000743e2000848f520043
:1005b000f9ff3600e00620007aff0700e006200081
:1005c00078ff0700e006200076ff0700e006200025
:1005d00074ff0700e006200072ff07000002eb0036
:1005e0002440880003003700244080000402e80013
:1005f0002440880025408000743e2000848f5200f3
:10060000f9ff360091ff370014408000e10f5200df
:1006100029003a000003200062ff070000032000c9
:1006200060ff0700000320005eff070000032000ba
:100630005cff0700000320005aff07000002eb00e8
:100640002440880003003700244080000402e800b2
:100650002440880025408000743e2000848f520092
:10066000f9ff3600000720004eff070000072000ba
:100670004cff0700000720004aff0700000720008a
:1006800048ff07000007200046ff07000002eb00bc
:100690002440880003003700244080000402e80062
:1006a0002440880025408000743e2000848f520042
:1006b000f9ff360065ff370014408000e20f52005a
:1006c00029003a000003200036ff07000003200045
:1006d00034ff07000003200032ff07000003200062
:1006e00030ff0700000320002eff07000002eb0090
:1006f0002440880003003700244080000402e80002
:100700002440880025408000743e2000848f5200e1
:10071000f9ff36002007200022ff070020072000f5
:1007200020ff0700200720001eff070020072000f1
:100730001cff0700200720001aff07000002eb0043
:100740002440880003003700244080000402e800b1
:100750002440880025408000743e2000848f520091
:10076000f9ff360039ff370014408000e30f5200d4
:1007700029003a00000320000aff070000032000c0
:1007800008ff07000003200006ff07000003200009
:1007900004ff07000003200002ff07000002eb0037
:1007a0002440880003003700244080000402e80051
:1007b0002440880025408000743e2000848f520031
:1007c000f9ff360040062000f6fe07004006200034
:1007d000f4fe070040062000f2fe0700400620005d
:1007e000f0fe070040062000eefe07000002eb00ce
:1007f0002440880003003700244080000402e80001
:100800002440880025408000743e2000848f5200e0
:10081000f9ff36000dff370014408000e40f52004e
:1008200029003a0000032000defe0700000320003c
:10083000dcfe070000032000dafe070000032000b2
:10084000d8fe070000032000d6fe07000002eb00e0
:100850002440880003003700244080000402e800a0
:100860002440880025408000743e2000848f520080
:10087000f9ff3600c0062000cafe0700c0062000af
:10088000c8fe0700c0062000c6fe0700c006200004
:10089000c4fe0700c0062000c2fe07000002eb00f5
:1008a0002440880003003700244080000402e80050
:1008b0002440880025408000743e2000848f520030
:1008c000f9ff3600e1fe370014408000e50f5200ca
:1008d000ddfe3a0000032000b2fe07000003200006
:1008e000b0fe070000032000aefe0700000320005a
:1008f000acfe070000032000aafe07000002eb0088
:100900002440880003003700244080000402e800ef
:100910002440880025408000743e2000848f5200cf
:10092000f9ff3600400720009efe07004007200028
:100930009cfe0700400720009afe070040072000a9
:1009400098fe07004007200096fe07000002eb001b
:100950002440880003003700244080000402e8009f
:100960002440880025408000743e2000848f52007f
:10097000f9ff3600b5fe37000000fa008cc0a90070
:1009800011e1a90084c0a9000080fa00000006005f
:100990000200fa00000f780084c0a9001e0278004f
:1009a0000442780067426200674262006742620068
:1009b0000482fb00670262004822dd00b60480006a
:1009c000f58f2f008502630004827200b404880052
:1009d0009e027800688262004322de0004427800b2
:1009e000614262000482fb00610262004622dd0077
:1009f00066048000f5fb2f0085026300048272000c
:100a0000640488000080fa00000006000400fa0078
:100a1000000f7800110798000002eb0034088800ee
:100a20001e029000640888001e0278008408880076
:100a30001061a9000080fa00000006000000fa0022
:100a400034088000040078000080fa0000000600ee
:100a50000200fa00000f78001e02780034088800b7
:080a60000080fa00000006000e
:020000040000fa
:100a68000008000006000000000000000000000070
:020000040000fa
:0200000401f009
:04000000e5bf000058
:020000040000fa
:0200000401f009
:04000400ff7f00007a
:00000001FF
