:020000040000fa
:080000000001040000000000f3
:020000040000fa
:100008007a0400007a0400007a0400007a040000f0
:100018007a0400007a0400007a0400007a040000e0
:100028007a0400007a0400007a0400007a040000d0
:100038007a0400007a04000098010000b001000072
:100048007a040000600200007a0400007a040000cc
:100058007a0400007a0400007a0400007a040000a0
:100068007a0400007a0400007a0400007a04000090
:100078007a0400007a0400007a0400007a04000080
:100088007a0400007a0400007a0400007a04000070
:100098007a0400007a0400007a0400007a04000060
:1000a8007a0400007a0400007a0400007a04000050
:1000b8007a0400007a0400007a0400007a04000040
:1000c8007a0400007a0400007a0400007a04000030
:1000d8007a0400007a0400007a0400007a04000020
:1000e8007a0400007a0400007a0400007a04000010
:0800f8007a0400007a04000004
:020000040000fa
:100108007a0400007a0400007a0400007a040000ef
:100118007a0400007a0400007a0400007a040000df
:100128007a0400007a0400007a0400007a040000cf
:100138007a0400007a04000098010000b001000071
:100148007a040000600200007a0400007a040000cb
:100158007a0400007a0400007a0400007a0400009f
:100168007a0400007a0400007a0400007a0400008f
:100178007a0400007a0400007a0400007a0400007f
:100188007a0400007a0400007a0400007a0400006f
:100198007a0400007a0400007a0400007a0400005f
:1001a8007a0400007a0400007a0400007a0400004f
:1001b8007a0400007a0400007a0400007a0400003f
:1001c8007a0400007a0400007a0400007a0400002f
:1001d8007a0400007a0400007a0400007a0400001f
:1001e8007a0400007a0400007a0400007a0400000f
:0801f8007a0400007a04000003
:020000040000fa
:10020000ef8120000eff20000e018800000000009a
:1002100000012000200288000c000700604f200031
:100220000100200011000700000020000000e00095
:10023000020032000000020000000000240402005e
:10024000000000000040da000000fe004440a90069
:10025000000020000000e000030032000000200049
:10026000a00188004440a800000006009101880019
:10027000800078000000eb0015003700e2804000ad
:1002800032a0b4009101ba00e280400032a0b40074
:100290009102ba00e280400032a0b4000002eb00fc
:1002a000472bde00f507b200602ce10004003a00a5
:1002b0000059eb008301e900fdff3e000400370018
:1002c0006128e100010032000082eb000400070019
:1002d0001101ba000200e000e8ff3a000000060049
:1002e0003159ba008301e9000c0032002159ba00eb
:1002f0008301e900080032000400e00003003a0036
:10030000e280400032a0b400f5ff370011d9ba00f6
:100310008301e900faff3a008100e800e180400033
:1003200032a0b40000000600000000000000000041
:10033000841f78003400f80004002000a401880025
:100340000000fa000002eb003408880084c0a90015
:100350000080fa003400f9004f02780000400600e7
:10036000841f78003400f80004002000a4018800f5
:100370000000fa000002eb005408880084e0a900a5
:100380000080fa003400f9004f02780000400600b7
:100390000000fa000d42a90074202000a41088007b
:1003a00075108000c4ff2f00048262007410880062
:1003b0000de2a8000f42a8008d20a8000080fa00de
:1003c000000006000000fa0074408000e20f5200b6
:1003d0000500360014002000144088000002eb00e5
:1003e00074408800020037000002eb0014408800cf
:1003f00084408000e20f5200050036001400200007
:10040000344088000002eb0084408800020037007e
:100410000002eb003440880094408000e20f52005c
:100420000500360014002000444088000002eb0064
:1004300094408800020037000002eb00444088002e
:10044000a4408000e20f5200050036001400200096
:10045000244088000002eb00a4408800020037001e
:100460000002eb0024408800b4408000e20f5200fc
:100470000500360014002000544088000002eb0004
:10048000b4408800020037000002eb0054408800ae
:10049000e4408000e20f5200050036001400200006
:1004a000644088000002eb00e4408800020037004e
:1004b0000002eb00644088000080fa0000000600a3
:1004c0003600f800809fbe00829fbe00849fbe0061
:1004d000869fbe003400f80000002000a0018800c4
:1004e0000000fa0094108000044278000440780074
:1004f00018e8b7000640800084812000144278008c
:100500009581200085024300844a780004408000e1
:100510000402e8000440880004408000e90f520013
:10052000670036000002eb00d44088005d00370011
:10053000d5408000948120000482420094427800db
:1005400004c7b30084cf520008003a007440800012
:100550000402e80074408800d540800094812000a7
:10056000848242000042eb00844a7800d54080003b
:1005700094812000048242009442780024c7b30092
:1005800084cf520008003a00a44080000402e80032
:10059000a4408800d54080009481200084824200dd
:1005a0000042eb00844a7800d5408000948120000e
:1005b0000482420094427800c4c6b30084cf520043
:1005c00008003a00844080000402e800844088006b
:1005d000d540800094812000848242000042eb00dc
:1005e000844a7800d5408000948120000482420033
:1005f0009442780044c6b30084cf520008003a0009
:10060000944080000402e80094408800d5408000b7
:1006100094812000848242000042eb00844a7800ea
:10062000d5408000948120000482420094427800ea
:1006300044c7b30084cf520008003a00b4408000a1
:100640000402e800b4408800d54080009481200076
:10065000848242000042eb00844a7800d54080004a
:10066000948120000482420094427800e4c6b300e2
:1006700084cf520008003a00e44080000402e80001
:10068000e4408800d54080009481200084824200ac
:100690000042eb00844a7800d44080000402e80065
:1006a000d4408800d540800004408000848f5200f0
:1006b0009fff390043ff07000002eb000440880061
:1006c0008520a9000080fa003400f9004f03be0025
:1006d0004f02be004f01be004f00be003600f900c1
:1006e000004006000000fa0014032000640888009f
:1006f0000002eb00040c8800843e2000140c8800eb
:1007000064fd2d00240c8800140320007408880068
:100710000002eb00340c8800843e2000440c88006a
:1007200064fd2d00540c880011e1a80013e1a8001d
:10073000d202a900d222a9000080fa00000006001f
:100740000000fa0074012000040c880074012000ed
:10075000340c8800cb22a800cb42a900cb62a800b1
:10076000cb82a9000080fa00000006000000fa0019
:1007700074012000040c880074012000340c8800ef
:10078000cb22a900cb42a800cb62a900cb82a80053
:100790000080fa00000006000000fa00740120004a
:1007a000040c880074012000340c8800cb22a900be
:1007b000cb42a800cb62a800cb82a9000080fa003f
:1007c000000006000000fa0074012000040c8800fc
:1007d00074012000340c8800cb22a800cb42a90071
:1007e000cb62a900cb82a8000080fa0000000600be
:1007f0000000fa0074012000040c8800740120003d
:10080000340c8800cb22a800cb42a900cb62a80000
:10081000cb82a9000080fa00000006000000fa0068
:1008200034022000040c880034022000340c8800bc
:10083000cb22a900cb42a900cb62a900cb82a900a0
:100840000080fa00000006000000fa00a922a800bb
:10085000a942a800a962a800a982a800c722a900ed
:10086000c742a900c762a900c782a900c8fe070045
:100870009cff0700010037000000000014408000ca
:10088000e10f520002003a00adff0700fbff370006
:1008900024408000e10f520002003a00b3ff07003d
:1008a000f6ff370044408000e10f520002003a009a
:1008b000c4ff0700f1ff370034408000e10f520011
:1008c00002003a00b4ff0700ecff3700843f20002d
:1008d000e10f520002003a0099ff0700e7ff3700de
:1008e00064408000e10f5200e3ff3a00cbff0700b5
:0c08f000e2ff37000040da000000fe00cc
:020000040000fa
:1008fc000000fa008cc0a90011e1a90084c0a90075
:10090c000080fa00000006000200fa00000f7800d8
:10091c0084c0a9001e02780004427800674262007d
:10092c0067426200674262000482fb006702620059
:10093c004822dd00b6048000f58f2f00850263008d
:10094c0004827200b40488009e02780068826200ff
:10095c004322de0004427800614262000482fb0004
:10096c00610262004622dd0066048000f5fb2f0068
:10097c008502630004827200640488000080fa001f
:10098c00000006000400fa00000f78001107980020
:10099c000002eb00340888001e02900064088800f6
:1009ac001e027800840888001061a9000080fa00fb
:1009bc00000006000000fa003408800004007800f3
:1009cc000080fa00000006000200fa00000f780018
:1009dc001e027800340888000080fa00000006002f
:020000040000fa
:1009ec0018080000060000000000000000080000cd
:1009fc0018000000020000000000000000000000d1
:100a0c0000000000000000000000000000000000da
:0c0a1c00000000000000000000000000ce
:020000040000fa
:0200000401f009
:04000000e5bf000058
:020000040000fa
:0200000401f009
:04000400ff7f00007a
:00000001FF
